{
  "transactions": [
    {
      "hash": "0x8e3556b30b1716b1d6c664b5bed78401e6a1145bba98292584bc308d31ea6c2b",
      "transactionType": "CALL",
      "contractName": null,
      "contractAddress": "0xf4fa7f3308a1543e7d89950519341c7ce479400b",
      "function": "deposit()",
      "arguments": [],
      "transaction": {
        "from": "0xb5e6b895734409df411a052195eb4ee7e40d8696",
        "to": "0xf4fa7f3308a1543e7d89950519341c7ce479400b",
        "gas": "0x23b78",
        "value": "0x29a2241af62c0000",
        "input": "0xd0e30db0",
        "nonce": "0x31",
        "chainId": "0x92"
      },
      "additionalContracts": [],
      "isFixedGasLimit": false
    },
    {
      "hash": "0x3b59f8c0fdd6be25fad94d8604a78f886885faeed6e9f1bae3b0b5a3a4f81da7",
      "transactionType": "CALL",
      "contractName": null,
      "contractAddress": "0xf4fa7f3308a1543e7d89950519341c7ce479400b",
      "function": "transfer(address,uint256)",
      "arguments": [
        "0x0000000000000000000000000000000000000001",
        "1000000000000000000"
      ],
      "transaction": {
        "from": "0xb5e6b895734409df411a052195eb4ee7e40d8696",
        "to": "0xf4fa7f3308a1543e7d89950519341c7ce479400b",
        "gas": "0x1301b",
        "value": "0x0",
        "input": "0xa9059cbb00000000000000000000000000000000000000000000000000000000000000010000000000000000000000000000000000000000000000000de0b6b3a7640000",
        "nonce": "0x32",
        "chainId": "0x92"
      },
      "additionalContracts": [],
      "isFixedGasLimit": false
    },
    {
      "hash": "0xd4743419385d76b967c4da2ef4391a1382a9acc078efcc2a874708baad6617bc",
      "transactionType": "CALL",
      "contractName": null,
      "contractAddress": "0xf4fa7f3308a1543e7d89950519341c7ce479400b",
      "function": "transfer(address,uint256)",
      "arguments": [
        "0x0000000000000000000000000000000000000002",
        "1000000000000000000"
      ],
      "transaction": {
        "from": "0xb5e6b895734409df411a052195eb4ee7e40d8696",
        "to": "0xf4fa7f3308a1543e7d89950519341c7ce479400b",
        "gas": "0x1301b",
        "value": "0x0",
        "input": "0xa9059cbb00000000000000000000000000000000000000000000000000000000000000020000000000000000000000000000000000000000000000000de0b6b3a7640000",
        "nonce": "0x33",
        "chainId": "0x92"
      },
      "additionalContracts": [],
      "isFixedGasLimit": false
    },
    {
      "hash": "0x055f035bbbc4d9c6bb394a1471172a5c6479bbf85d071e81934aac2c1d8b9197",
      "transactionType": "CALL",
      "contractName": null,
      "contractAddress": "0xf4fa7f3308a1543e7d89950519341c7ce479400b",
      "function": "transfer(address,uint256)",
      "arguments": [
        "0x0000000000000000000000000000000000000003",
        "1000000000000000000"
      ],
      "transaction": {
        "from": "0xb5e6b895734409df411a052195eb4ee7e40d8696",
        "to": "0xf4fa7f3308a1543e7d89950519341c7ce479400b",
        "gas": "0x11635",
        "value": "0x0",
        "input": "0xa9059cbb00000000000000000000000000000000000000000000000000000000000000030000000000000000000000000000000000000000000000000de0b6b3a7640000",
        "nonce": "0x34",
        "chainId": "0x92"
      },
      "additionalContracts": [],
      "isFixedGasLimit": false
    }
  ],
  "receipts": [
    {
      "status": "0x1",
      "cumulativeGasUsed": "0x1ac6a",
      "logs": [
        {
          "address": "0xf4fa7f3308a1543e7d89950519341c7ce479400b",
          "topics": [
            "0xddf252ad1be2c89b69c2b068fc378daa952ba7f163c4a11628f55a4df523b3ef",
            "0x0000000000000000000000000000000000000000000000000000000000000000",
            "0x000000000000000000000000b5e6b895734409df411a052195eb4ee7e40d8696"
          ],
          "data": "0x00000000000000000000000000000000000000000000000029a2241af62c0000",
          "blockHash": "0x84532cecbe1efa55a9e746be27d3f9b77704247f43250b7bdb98676aea97aa70",
          "blockNumber": "0x65a72",
          "transactionHash": "0x8e3556b30b1716b1d6c664b5bed78401e6a1145bba98292584bc308d31ea6c2b",
          "transactionIndex": "0x0",
          "logIndex": "0x0",
          "removed": false
        },
        {
          "address": "0xf4fa7f3308a1543e7d89950519341c7ce479400b",
          "topics": [
            "0x73a19dd210f1a7f902193214c0ee91dd35ee5b4d920cba8d519eca65a7b488ca",
            "0x000000000000000000000000b5e6b895734409df411a052195eb4ee7e40d8696"
          ],
          "data": "0x00000000000000000000000000000000000000000000000029a2241af62c000000000000000000000000000000000000000000000000000029a2241af62c0000",
          "blockHash": "0x84532cecbe1efa55a9e746be27d3f9b77704247f43250b7bdb98676aea97aa70",
          "blockNumber": "0x65a72",
          "transactionHash": "0x8e3556b30b1716b1d6c664b5bed78401e6a1145bba98292584bc308d31ea6c2b",
          "transactionIndex": "0x0",
          "logIndex": "0x1",
          "removed": false
        }
      ],
      "logsBloom": "0x00000000000000000000000000000000000000000000000000000000000000000000000000000000000900000000000000000000000000000000000000000000000000000000000000000008000000000000000000000000000000000000000000000000020000000000000000000800000000000000000000000010000000000000000000000000000010000200000000000020000000000800000000000000000000000000000000000000000000002000000000000000000000000000000000000002000000000000000000000000000000000000000000010000000020000002000000000000000000000000000000000000000000000000000000000000",
      "type": "0x2",
      "transactionHash": "0x8e3556b30b1716b1d6c664b5bed78401e6a1145bba98292584bc308d31ea6c2b",
      "transactionIndex": "0x0",
      "blockHash": "0x84532cecbe1efa55a9e746be27d3f9b77704247f43250b7bdb98676aea97aa70",
      "blockNumber": "0x65a72",
      "gasUsed": "0x1ac6a",
      "effectiveGasPrice": "0x3b9aca01",
      "from": "0xb5e6b895734409df411a052195eb4ee7e40d8696",
      "to": "0xf4fa7f3308a1543e7d89950519341c7ce479400b",
      "contractAddress": null
    },
    {
      "status": "0x1",
      "cumulativeGasUsed": "0x290fa",
      "logs": [
        {
          "address": "0xf4fa7f3308a1543e7d89950519341c7ce479400b",
          "topics": [
            "0xddf252ad1be2c89b69c2b068fc378daa952ba7f163c4a11628f55a4df523b3ef",
            "0x000000000000000000000000b5e6b895734409df411a052195eb4ee7e40d8696",
            "0x0000000000000000000000000000000000000000000000000000000000000001"
          ],
          "data": "0x0000000000000000000000000000000000000000000000000de0b6b3a7640000",
          "blockHash": "0x84532cecbe1efa55a9e746be27d3f9b77704247f43250b7bdb98676aea97aa70",
          "blockNumber": "0x65a72",
          "transactionHash": "0x3b59f8c0fdd6be25fad94d8604a78f886885faeed6e9f1bae3b0b5a3a4f81da7",
          "transactionIndex": "0x1",
          "logIndex": "0x2",
          "removed": false
        }
      ],
      "logsBloom": "0x00000000000000000000000000000000000000000000000000000000000000000000000000000000000000000000000000000000000000000000000000040000000000000000000000000008000000000000000000040000000000000000000000000000000000000000000000000000000000000000000000000010000000000000000000000000000010000200000000000020000000000800000000000000000000000000000000000000000000000000000000000000000000000000000000000002000000000000000000000000000000000000000000010000000040000002000000000000000000000000000000000000000000000000000000000000",
      "type": "0x2",
      "transactionHash": "0x3b59f8c0fdd6be25fad94d8604a78f886885faeed6e9f1bae3b0b5a3a4f81da7",
      "transactionIndex": "0x1",
      "blockHash": "0x84532cecbe1efa55a9e746be27d3f9b77704247f43250b7bdb98676aea97aa70",
      "blockNumber": "0x65a72",
      "gasUsed": "0xe490",
      "effectiveGasPrice": "0x3b9aca01",
      "from": "0xb5e6b895734409df411a052195eb4ee7e40d8696",
      "to": "0xf4fa7f3308a1543e7d89950519341c7ce479400b",
      "contractAddress": null
    },
    {
      "status": "0x1",
      "cumulativeGasUsed": "0x3758a",
      "logs": [
        {
          "address": "0xf4fa7f3308a1543e7d89950519341c7ce479400b",
          "topics": [
            "0xddf252ad1be2c89b69c2b068fc378daa952ba7f163c4a11628f55a4df523b3ef",
            "0x000000000000000000000000b5e6b895734409df411a052195eb4ee7e40d8696",
            "0x0000000000000000000000000000000000000000000000000000000000000002"
          ],
          "data": "0x0000000000000000000000000000000000000000000000000de0b6b3a7640000",
          "blockHash": "0x84532cecbe1efa55a9e746be27d3f9b77704247f43250b7bdb98676aea97aa70",
          "blockNumber": "0x65a72",
          "transactionHash": "0xd4743419385d76b967c4da2ef4391a1382a9acc078efcc2a874708baad6617bc",
          "transactionIndex": "0x2",
          "logIndex": "0x3",
          "removed": false
        }
      ],
      "logsBloom": "0x04000000000000000000000000000000000000000000000000000000000000000000000000000000000000000000000000000000000000000000000000000000000000000000000000000008000000000000000000000000000000000000000000000000000000000000000000000000000000000000000000000010000000000000000000000000000010000200000000000020000000000800000000000000000000000000000000000100000000000000000000000000000000000000000000000002000000000000000000000000000000000000000000010000000000000002000000000000000000000000000000000000008000000000000000000000",
      "type": "0x2",
      "transactionHash": "0xd4743419385d76b967c4da2ef4391a1382a9acc078efcc2a874708baad6617bc",
      "transactionIndex": "0x2",
      "blockHash": "0x84532cecbe1efa55a9e746be27d3f9b77704247f43250b7bdb98676aea97aa70",
      "blockNumber": "0x65a72",
      "gasUsed": "0xe490",
      "effectiveGasPrice": "0x3b9aca01",
      "from": "0xb5e6b895734409df411a052195eb4ee7e40d8696",
      "to": "0xf4fa7f3308a1543e7d89950519341c7ce479400b",
      "contractAddress": null
    },
    {
      "status": "0x1",
      "cumulativeGasUsed": "0x444c3",
      "logs": [
        {
          "address": "0xf4fa7f3308a1543e7d89950519341c7ce479400b",
          "topics": [
            "0xddf252ad1be2c89b69c2b068fc378daa952ba7f163c4a11628f55a4df523b3ef",
            "0x000000000000000000000000b5e6b895734409df411a052195eb4ee7e40d8696",
            "0x0000000000000000000000000000000000000000000000000000000000000003"
          ],
          "data": "0x0000000000000000000000000000000000000000000000000de0b6b3a7640000",
          "blockHash": "0x84532cecbe1efa55a9e746be27d3f9b77704247f43250b7bdb98676aea97aa70",
          "blockNumber": "0x65a72",
          "transactionHash": "0x055f035bbbc4d9c6bb394a1471172a5c6479bbf85d071e81934aac2c1d8b9197",
          "transactionIndex": "0x3",
          "logIndex": "0x4",
          "removed": false
        }
      ],
      "logsBloom": "0x00000000000000000000000000000000000000000000000000000000000000000000000000000000000000000000000000000000020000000000000000000000000000000000000000000008000000000000000000000000000000000000000000000000000000000000000000000000000000000000000000000010000000000000000000000000000010000200000000000020000000000800000000000000000000000000000000000000000000000000000000800000000000000000400000000002000000000000000000000000000000000000000000010000000000000002000000000000000000000000000000000000000000000000000000000000",
      "type": "0x2",
      "transactionHash": "0x055f035bbbc4d9c6bb394a1471172a5c6479bbf85d071e81934aac2c1d8b9197",
      "transactionIndex": "0x3",
      "blockHash": "0x84532cecbe1efa55a9e746be27d3f9b77704247f43250b7bdb98676aea97aa70",
      "blockNumber": "0x65a72",
      "gasUsed": "0xcf39",
      "effectiveGasPrice": "0x3b9aca01",
      "from": "0xb5e6b895734409df411a052195eb4ee7e40d8696",
      "to": "0xf4fa7f3308a1543e7d89950519341c7ce479400b",
      "contractAddress": null
    }
  ],
  "libraries": [],
  "pending": [],
  "returns": {
    "0": {
      "internal_type": "contract SonicStaking",
      "value": "0xf4fa7F3308A1543E7d89950519341C7Ce479400B"
    }
  },
  "timestamp": 1734213241,
  "chain": 146,
  "commit": "cda4139"
}